S00E00005465747269732E737265639B
S11300000C94E9000C9406010C9406010C9406016E
S11300100C9406010C94B9010C9406010C9406018D
S11300200C9406010C9406010C9406010C94060130
S11300300C9406010C9406010C9406010C94060120
S11300400C94CB080C9406010C9406010C94060144
S11300500C94EC070C94AA070C9406010C9406016A
S11300600C9406010C9406010C9406010C940601F0
S11300700C9406010C9406010C94060150726573ED
S113008073206120627574746F6E20746F207374B2
S113009061727420616761696E0047414D45204F6C
S11300A05645520043535345323031302F373230A6
S11300B031205465747269732050726F6A65637479
S11300C0206279204A616D65732042656E746C65A7
S11300D0790054657472697300440141013D01392A
S11300E001350131012D01290125012101B301AFA0
S11300F001AB01A701A3019F019B0197019401900A
S1130100018C01880183017F017B01770172016EFB
S1130110016A01650161015C01570152014D014809
S1130120016492927D6C92926D809EA0C17C9292A9
S11301304DE4A2A29D182848FF4492926D468A92EB
S11301406342FE037C92A27D868A92A2C3E0100ED3
S113015010E1C6281028C7FC021C02FDF8040204A2
S1130160F9FC0202FD8080FE80816492924DFE9033
S113017098677C828A7C03FE9090617C82827DFEFB
S11301802010FFFE403040FFFE020203FE1028C78D
S1130190040202FD82FE83FE1010FF7C82925DFE4B
S11301A0909081FE929283FE82827D7C828245FEC3
S11301B092926D7E90907F1B5B3F32356C001B5B8F
S11301C025646D001B5B324A001B5B25643B256480
S11301D0480011241FBECFEFD8E0DEBFCDBF11E031
S11301E0A0E0B1E0E4E9F9E102C005900D92A63780
S11301F0B107D9F723E0A6E7B1E001C01D92A3340B
S1130200B207E1F70E940C060C94C80C0C94000091
S1130210CF93DF93EC010E947F0925E030E040E0BA
S113022050E00E94F0088BE06802F0011124E25DC6
S1130230FE4F4381548120818181928168835A8356
S113024049832B831C821D821E829F838887CE0153
S1130250DF91CF910895FC01208547813581822F5C
S113026090E0830F911D09974CF53481842F90E021
S1130270830F911D419724F5868190E00196837048
S11302809078992324F401978C6F9F6F0196DC0179
S1130290BB279081AA0FBB1F3BE09302A00DB11DA9
S11302A01124A25DBE4F13966D917C9114977283B5
S11302B0618386832783408781E0089580E00895E1
S11302C080E00895FC019581278130E0290F311DDC
S11302D02830310524F49F5F958381E0089580E000
S11302E00895FC019581992321F09150958381E033
S11302F0089580E00895E8E6F0E0808182608083DC
S1130300D99AECE6F0E080818F60808310927601C8
S113031008951092760108958091760118163CF59F
S1130320809177016FB7F894909176019230B4F090
S113033021E030E091E0F901E958FE4F4081F901F4
S1130340EA58FE4F40839F5F292F30E040917601A9
S1130350042E000C550B241735076CF3909176018D
S113036091509093760166231CF4789408958FEF4E
S113037008951F920F920FB60F9211242F933F935B
S11303804F935F936F937F938F939F93EF93FF9319
S113039043B14F7080917601883064F580E090E03D
S11303A0642F70E09B01082E02C0359527950A94AE
S11303B0E2F720FF1BC020917F0130E0082E02C02D
S11303C0359527950A94E2F720FD10C0E091760157
S11303D021E02E0F209376010E2E000CFF0BE9581E
S11303E0FE4F808320917601283024F401968430D6
S11303F09105C1F640937F01FF91EF919F918F91F9
S11304007F916F915F914F913F912F910F900FBE0C
S11304100F901F901895EF92FF920F931F93CF9315
S1130420DF93CDB7DEB729970FB6F894DEBF0FBEC2
S1130430CDBF09831A832B833C834D835E836F83F3
S113044078878987EA80FB80982F882371F1052FAC
S1130450F701208130E002C0220F331F5A95E2F7E2
S1130460E42FF0E0E05FFD4F8081822301F5F70186
S11304703196A42FB0E0AF5EBD4F9150692F70E06C
S11304806F5F7F4F6E0D7F1D0CC091914D91292F91
S113049030E0002E02C0220F331F0A94E2F7242317
S11304A041F4E617F70789F705C080E003C081E04F
S11304B001C081E029960FB6F894DEBF0FBECDBF10
S11304C0DF91CF911F910F91FF90EF900895FF92CC
S11304D00F931F93CF93DF93D0912802DD2399F1DB
S11304E0E0E2F2E014814781858157E0581BA18145
S11304F0B281C0E0F12C00E06C2F610F4423F9F0CD
S11305002F2D302F70E0660F771F660F771F660F51
S1130510771F8C9190E0022E02C0959587950A94DE
S1130520E2F780FF08C0852F821BFB01E80FF11D55
S1130530E057FE4F10822F5F3F4F241750F3CF5FD9
S11305401196CD17C8F2DF91CF911F910F91FF90B3
S11305500895EF92FF920F931F93CF93DF9310911F
S113056028021123A1F1E0E2F2E0048147818581B0
S113057057E0581BC381A181B281D0E0E12CF12C5A
S11305806D2F600F4423F9F02E2D3F2D70E0660F80
S1130590771F660F771F660F771F8C9190E0022EEE
S11305A002C0959587950A94E2F780FF08C0852FCD
S11305B0821BFB01E80FF11DE057FE4FC0832F5F44
S11305C03F4F241750F3DF5F1196D117C8F2DF9124
S11305D0CF911F910F91FF90EF900895CF93DF93E8
S11305E0C82FDFEFD60FD80FD81780F06C2F70E02C
S11305F0660F771F660F771F660F771F60577E4F52
S11306008C2F0E948D04CF5FDC1780F7DF91CF9190
S113061008950F931F93CF93DF93CDB7DEB7299738
S11306200FB6F894DEBF0FBECDBFCE0101960E9477
S1130630080189E0FE013196A0E2B2E001900D923A
S11306408A95E1F700912002109121022091220263
S11306503091230240912402509125026091260298
S113066070912702809128020E940B0281110AC016
S11306700E94A902E0E2F2E0608584810E94EE0219
S113068081E001C080E029960FB6F894DEBF0FBE6A
S1130690CDBFDF91CF911F910F9108950E94AF04B8
S11306A0A0E1B2E020E931E040E152E090E01D92A7
S11306B0F901892F11928F5F8830E1F7285F3F4F4E
S11306C024173507A1F70E94090308950F931F9378
S11306D0CF93DF93CDB7DEB729970FB6F894DEBF7B
S11306E00FBECDBF99E0E0E2F2E0DE011196019089
S11306F00D929A95E1F7811107C0CE0101960E94EF
S11307006201811107C028C0CE0101960E947101C7
S1130710882321F109811A812B813C814D815E81DD
S11307206F81788589850E940B02811119C00E940E
S1130730670289E0FE013196A0E2B2E001900D92D9
S11307408A95E1F70E94A902E0E2F2E060858481E3
S11307500E94EE0281E005C080E003C080E001C099
S113076080E029960FB6F894DEBF0FBECDBFDF91AF
S1130770CF911F910F910895FF920F931F93CF93E1
S1130780DF93CDB7DEB729970FB6F894DEBF0FBE5F
S1130790CDBFE0E2F2E04481808590E0840F911DBA
S11307A040977CF589E0DE01119601900D928A95BF
S11307B0E1F7FF24F394F40E09811A812B813C8123
S11307C04F2D5E816F81788589850E940B0281118E
S11307D01AC00E946702FD8289E0FE013196A0E200
S11307E0B2E001900D928A95E1F70E94A902E0E23D
S11307F0F2E060856F5F848181500E94EE0281E0A7
S113080003C080E001C080E029960FB6F894DEBFF3
S11308100FBECDBFDF91CF911F910F91FF9008952F
S11308200E94BC0391E0811101C090E0892F0895DA
S11308300F931F93CF93DF93CDB7DEB729970FB6EE
S1130840F894DEBF0FBECDBF89E0E0E2F2E0DE0146
S1130850119601900D928A95E1F7CE0101960E94BE
S11308602B01882339F109811A812B813C814D8127
S11308705E816F81788589850E940B0281111CC07D
S1130880898510912802181708F4182F0E9467020E
S113089089E0FE013196A0E2B2E001900D928A95C2
S11308A0E1F70E94A902612F809124020E94EE02C6
S11308B081E003C080E001C080E029960FB6F8947F
S11308C0DEBF0FBECDBFDF91CF911F910F91089571
S11308D0309128023323D1F0E0E2F2E064814581D3
S11308E0A181B28120E0E22FE60FF0E08D91E05F7C
S11308F0FD4F90E0042E02C0880F991F0A94E2F77E
S11309009081892B80832F5F231768F30E9409034A
S1130910089580E80E943F0808950F931F93CF9392
S1130920DF93C82F8B0183E00E9467088C2F8F70A0
S11309300E946708E801085F1F4F89910E946708B9
S1130940C017D107D1F7DF91CF911F910F9108956F
S113095084E00E94670882E00E94670808958FE09F
S11309600E94670808950E9489040E947B0140E068
S113097060E07BE480E090E00E9457070E94A508B5
S113098078940895FF920F931F93CF93DF9380E0A1
S11309900E948F080E9486080E949C0863E083E0FE
S11309A00E946D0882ED90E09F938F930E94CB0983
S11309B065E083E00E946D0880E20E948F0884EA6B
S11309C090E09F938F930E94CB0985E20E948F0849
S11309D00E94AF040F900F900F900F90CFE00F2E56
S11309E0FFE0FF2EF02D0FEF10EFD5E16C2F85E621
S11309F091E00E9420060DC02FE78CE293E0215085
S1130A0080409040E1F700C000000E948C018F3FBD
S1130A10A9F50E942F068111EFCF0E947F09DC0106
S1130A20CB0183709927AA27B078BB2354F401978C
S1130A30A109B1098C6F9F6FAF6FBF6F0196A11DA4
S1130A40B11D81309105A105B10591F02CF4892BDC
S1130A508A2B8B2B59F0CACF82309105A105B105A1
S1130A6049F00397A105B10539F0C0CFCD2FBECF12
S1130A70CF2DBCCFC02FBACFC12FB8CFDF91CF912C
S1130A801F910F91FF9008950E944E030E948608C3
S1130A900E9417060E9489010E94A50708954F929B
S1130AA05F926F927F928F929F92AF92CF92DF92DA
S1130AB0EF92FF921F93CF93DF930E94BD086B01C7
S1130AC07C0110E0DFEF0F2EFDE38F2EF3E09F2E6D
S1130AD0F02D6894AA24A1F80E948C01C82F8F3F9E
S1130AE009F061C00E949E078823D1F1F40180813E
S1130AF091810E948D09111105C08B3109F44DC0FB
S1130B008D2F0AC0113029F48B3509F448C08D2F7C
S1130B1003C0123009F045C0843409F047C010E026
S1130B2080E00E9466031CC010E081E00E9466031E
S1130B3017C0C23011F0813419F40E94180410C097
S1130B40C13011F0823461F40E941004892B21F425
S1130B500E9468048823A1F10E94BD086B017C01F6
S1130B600E94BD0826013701F8E54F0EF2E05F1E32
S1130B70611C711C641575058605970508F4ACCFD6
S1130B800E94BC03811104C00E9468048823C1F040
S1130B900E94BD086B017C019FCF11E0E1CF1A2DAB
S1130BA0DFCF10E0DDCF833031F4BACF833409F4E2
S1130BB0BBCF10E0BECF882309F4B7CF8D2FB9CFB8
S1130BC0DF91CF911F91FF90EF90DF90CF90AF9086
S1130BD09F908F907F906F905F904F9008956EE0FC
S1130BE08AE00E946D088AE990E09F938F930E94A7
S1130BF0CB096FE08AE00E946D088CE790E09F9338
S1130C008F930E94CB090F900F900F900F900E942A
S1130C108C018F3FE1F308950E94B3040E94C20443
S1130C200E9444050E944F050E94EF05F9CF1092DF
S1130C308001109281011092820110928301089523
S1130C4060931F01909388018093870110928A0119
S1130C5010928901109286011092850108950F93D4
S1130C601F93CF93DF93CDB7DEB728970FB6F894D1
S1130C70DEBF0FBECDBFE0918901F0918A013097AC
S1130C8081F0149110FF06C010928A01109289011C
S1130C9000E06BC03196F0938A01E093890100E093
S1130CA064C0E0918501F0918601309709F449C050
S1130CB0CF0101969093860180938501E081E11133
S1130CC00AC0109286011092850180E1809384010C
S1130CD000E010E04AC08FE98E0F8A3170F4F0E032
S1130CE0EE0FFF1FE55DFF4F8591949190938A016C
S1130CF08093890100E010E038C08FEB8E0F8A31B9
S1130D0070F4F0E0EE0FFF1FE559FF4F85919491C9
S1130D1090938A018093890100E010E026C080ED61
S1130D208E0F8A3000F5F0E0EE0FFF1FE758FF4FFB
S1130D308591949190938A018093890100E010E059
S1130D4014C0809187019091880101E0009709F017
S1130D5000E090938601809385011092880110929F
S1130D60870110E002C000E010E00E94A804209176
S1130D701F01FE013896CE010196112314F420833D
S1130D8001C01082110F3197E817F907B1F71982E2
S1130D90BE016F5F7F4F8FE00E948D0480918401BC
S1130DA0882389F0815080938401002311F08823E3
S1130DB011F090E003C091E001C091E081E099233B
S1130DC029F080E003C00111F8CFF3CF28960FB6C5
S1130DD0F894DEBF0FBECDBFDF91CF911F910F916D
S1130DE00895CF93C82F8A3019F48DE00E94F1063C
S1130DF02FB7207802C0222329F190912A029F3F25
S1130E00D1F3F894E091290281E08E0F80932902B6
S1130E10F0E0E55DFD4FC08380912A028F5F8093EF
S1130E202A02809129028F3F11F410922902E1ECE9
S1130E30F0E0808180628083222339F0789480E01E
S1130E4090E005C081E090E002C080E090E0CF91A6
S1130E50089580913C038823E1F32FB72078F89418
S1130E6080912A0330913C0390E0831B91095AF44A
S1130E70E0912A0380913C03F0E0E81BF109E55C72
S1130E80FC4F80810AC0E0912A0380913C03F0E08A
S1130E90E81BF109E55DFC4F808190913C03915082
S1130EA090933C03222309F0789490E008951092E3
S1130EB0290210922A0210922A0310923C031092E3
S1130EC03B0340938B01DC01CB01880F991FAA1FC0
S1130ED0BB1F880F991FAA1FBB1F9C01AD01220FC6
S1130EE0331F441F551F60E072E18AE790E00E94BF
S1130EF0F008BA01A9014F5F5F4F6F4F7F4FDB01CD
S1130F00CA011AF40196A11DB11DB595A79597952F
S1130F10879501979093C5008093C400E1ECF0E0BD
S1130F2088E18083808180688083EDE3F3E080E260
S1130F3091E09383828391838083089590913C030D
S1130F4081E0911101C080E0089510922A0310926B
S1130F503C0308951F920F920FB60F9211242F9302
S1130F608F939F93EF93FF9380912A02882329F113
S1130F708091290220912A0290E0821B91095AF45F
S1130F80E091290280912A02F0E0E81BF109E65D74
S1130F90FC4F90810AC0E091290280912A02F0E07E
S1130FA0E81BF109E55DFD4F908180912A02815093
S1130FB080932A029093C60005C0E1ECF0E08081A2
S1130FC08F7D8083FF91EF919F918F912F910F904F
S1130FD00FBE0F901F9018951F920F920FB60F928D
S1130FE011242F933F934F935F936F937F938F932A
S1130FF09F93AF93BF93CF93EF93FF93C091C6009A
S113100080918B01882349F080912A028F3F29F037
S113101060E070E08C2F0E94F10680913C038031E7
S113102020F081E080933B0318C0CD3009F4CAE07E
S1131030E0912A0381E08E0F80932A03F0E0E55DBE
S1131040FC4FC08380913C038F5F80933C0380916D
S11310502A03803111F410922A03FF91EF91CF916A
S1131060BF91AF919F918F917F916F915F914F91BC
S11310703F912F910F900FBE0F901F90189594B130
S1131080906B94B92C9A90E59CBD883021F0803205
S113109011F0823019F491E09DBD01C01DBC803275
S11310A069F028F4883071F0803161F00EC080342A
S11310B029F0803851F48CB581608CBD8CB5826088
S11310C08CBD03C08CB581608CBD2C9808958EBDF9
S11310D00DB407FEFDCF8EB50895282F082E000C01
S11310E0330B3F938F93862F062E000C990B9F93FF
S11310F06F9389EC91E09F938F930E94CB090F909B
S11311000F900F900F900F900F90089584EC91E042
S11311109F938F930E94CB090F900F9008951F9275
S11311208F938EEB91E09F938F930E94CB090F9046
S11311300F900F900F90089587EB91E09F938F93FA
S11311400E94CB090F900F90089510928C01109279
S11311508D0110928E0110928F0116BC8CE787BD11
S113116082E084BD83E085BDEEE6F0E080818260AC
S1131170808385B3827085BB08952FB7F8946091FE
S11311808C0170918D0180918E0190918F012223A9
S11311900CF4789408951F920F920FB60F921124B5
S11311A08F939F93AF93BF9380918C0190918D0106
S11311B0A0918E01B0918F010196A11DB11D809364
S11311C08C0190938D01A0938E01B0938F01BF91F8
S11311D0AF919F918F910F900FBE0F901F90189514
S11311E0052E97FB1EF400940E94070957FD07D0B3
S11311F00E940F0907FC03D04EF40C940709509584
S11312004095309521953F4F4F4F5F4F08959095EE
S11312108095709561957F4F8F4F9F4F0895A1E200
S11312201A2EAA1BBB1BFD010DC0AA1FBB1FEE1F5C
S1131230FF1FA217B307E407F50720F0A21BB30BA7
S1131240E40BF50B661F771F881F991F1A9469F723
S113125060957095809590959B01AC01BD01CF017F
S113126008958F929F92AF92BF92CF92DF92EF92A6
S1131270FF92CF93DF93EC01688179818A819B810E
S1131280611571058105910521F464E279ED8BE521
S113129097E02DE133EF41E050E00E94F00849016E
S11312A05A019B01AC01A7EAB1E40E946F0C6B01E7
S11312B07C01ACEEB4EFA50194010E947D0CDC012D
S11312C0CB018C0D9D1DAE1DBF1DB7FF03C0019743
S11312D0A109B04888839983AA83BB83BC01CD014B
S11312E09F77DF91CF91FF90EF90DF90CF90BF90E9
S11312F0AF909F908F9008950E943109089580E0E7
S113130091E00E94310908956093000170930101F6
S113131080930201909303010895CF93DF93EC012E
S11313202B8120FF33C026FF0AC02F7B2B838E81A5
S11313309F8101969F838E838A8190E029C022FF3A
S11313400FC0E881F9818081082E000C990B009769
S113135019F420622B831AC03196F983E8830EC0F6
S1131360EA85FB85099597FF09C02B81019611F049
S113137080E201C080E1822B8B8308C02E813F81F3
S11313802F5F3F4F3F832E83992702C08FEF9FEF3C
S1131390DF91CF910895A0E0B0E0E1EDF9E00C9485
S11313A0900CAE01495F5F4FDA016D917D91AD0103
S11313B00DE313E0F80182819381DC0113962C91F3
S11313C01397286013962C930E94F109D801129662
S11313D0ED91FC9113972381277F2383E4E00C9400
S11313E0AC0CACE0B0E0E7EFF9E00C94820C7C01CB
S11313F06B018A01FC0117821682838181FFBDC1C2
S1131400CE0101964C01F7019381F60193FD85917C
S113141093FF81916F01882309F4ABC1853239F4BC
S113142093FD859193FF81916F01853229F4B70172
S113143090E00E94D90BE7CF512C312C20E02032D0
S1131440A0F48B3269F030F4803259F0833269F4BD
S113145020612CC08D3239F0803339F4216026C0EC
S11314602260246023C0286021C027FD27C030EDFE
S1131470380F3A3078F426FF06C0FAE05F9E300D4C
S11314801124532E13C08AE0389E300D1124332EBC
S113149020620CC08E3221F426FD6BC1206406C08C
S11314A08C3611F4206802C0883641F4F60193FDAD
S11314B0859193FF81916F018111C1CF982F9F7DF9
S11314C09554933028F40C5F1F4FFFE3F9830DC04C
S11314D0833631F0833771F0833509F05BC022C065
S11314E0F801808189830E5F1F4F44244394512C5B
S11314F0540115C03801F2E06F0E711CF801A08090
S1131500B18026FF03C0652D70E002C06FEF7FEF4E
S1131510C5012C870E94CE0B2C0183012C852F77CB
S1131520222E17C03801F2E06F0E711CF801A08062
S1131530B18026FF03C0652D70E002C06FEF7FEF1E
S1131540C5012C870E94C30B2C012C852068222EF8
S1131550830123FC1BC0832D90E048165906B0F488
S1131560B70180E290E00E94D90B3A94F4CFF501E0
S113157027FC859127FE81915F01B70190E00E94CD
S1131580D90B31103A94F1E04F1A51084114510427
S113159071F7E5C0843611F0893639F5F80127FF73
S11315A007C060817181828193810C5F1F4F08C0E5
S11315B060817181072E000C880B990B0E5F1F4F01
S11315C02F76722E97FF09C090958095709561953E
S11315D07F4F8F4F9F4F2068722E2AE030E0A40186
S11315E00E94110CA82EA81844C0853729F42F7E18
S11315F0B22E2AE030E025C0F22FF97FBF2E8F36BD
S1131600C1F018F4883579F0B4C0803719F0883700
S113161021F0AFC02F2F2061B22EB4FE0DC08B2D50
S11316208460B82E09C024FF0AC09F2F9660B92E8B
S113163006C028E030E005C020E130E002C020E12F
S113164032E0F801B7FE07C0608171818281938125
S11316500C5F1F4F06C06081718180E090E00E5FD7
S11316601F4FA4010E94110CA82EA818FB2DFF7770
S11316707F2E76FE0BC0372D3E7FA51450F474FEEA
S11316800AC072FC08C0372D3E7E05C0BA2C372D27
S113169003C0BA2C01C0B52C34FF0DC0FE01EA0D05
S11316A0F11D8081803311F4397E09C032FF06C0F8
S11316B0B394B39404C0832F867809F0B39433FDB4
S11316C013C030FF06C05A2CB31418F4530C5B1823
S11316D0B32CB31468F4B70180E290E03C870E9415
S11316E0D90BB3943C85F5CFB31410F43B1801C067
S11316F0312C34FF12C0B70180E390E03C870E9494
S1131700D90B3C8532FF17C031FD03C088E790E058
S113171002C088E590E0B7010CC0832F867859F0A9
S113172031FF02C08BE201C080E237FD8DE2B701D8
S113173090E00E94D90BA51438F4B70180E390E03F
S11317400E94D90B5A94F7CFAA94F401EA0DF11D23
S11317508081B70190E00E94D90BA110F5CF33200E
S113176009F451CEB70180E290E00E94D90B3A947B
S1131770F6CFF7018681978102C08FEF9FEF2C96F9
S1131780E2E10C949E0CFC01059061507040011044
S1131790D8F7809590958E0F9F1F0895FC01615096
S11317A0704001900110D8F7809590958E0F9F1F7F
S11317B008950F931F93CF93DF93FB01238121FDA2
S11317C003C08FEF9FEF28C022FF16C046815781C8
S11317D0248135814217530744F4A081B1819D01CE
S11317E02F5F3F4F318320838C93268137812F5F76
S11317F03F4F3783268310C0EB01092F182F008435
S1131800F185E02D0995892BE1F68E819F81019662
S11318109F838E83812F902FDF91CF911F910F9102
S11318200895FA01AA27283051F1203181F1E89472
S11318306F936E7F6E5F7F4F8F4F9F4FAF4FB1E0BF
S11318403ED0B4E03CD0670F781F891F9A1FA11DBA
S1131850680F791F8A1F911DA11D6A0F711D811DBB
S1131860911DA11D20D009F468943F912AE0269F80
S113187011243019305D3193DEF6CF010895462FDF
S11318804770405D4193B3E00FD0C9F7F6CF462FC0
S11318904F70405D4A3318F0495D31FD4052419329
S11318A002D0A9F7EACFB4E0A695979587957795E6
S11318B06795BA95C9F700976105710508959B016D
S11318C0AC010A2E06945795479537952795BA95F6
S11318D0C9F7620F731F841F951FA01D08950E94EE
S11318E0B90CA59F900DB49F900DA49F800D911DE0
S11318F011240895B7FF0C946F0C0E946F0C821B87
S1131900930B08952F923F924F925F926F927F9222
S11319108F929F92AF92BF92CF92DF92EF92FF92FB
S11319200F931F93CF93DF93CDB7DEB7CA1BDB0BA7
S11319300FB6F894DEBF0FBECDBF09942A8839884C
S113194048885F846E847D848C849B84AA84B98453
S1131950C884DF80EE80FD800C811B81AA81B9815F
S1131960CE0FD11D0FB6F894DEBF0FBECDBFED0173
S11319700895A29FB001B39FC001A39F700D811D64
S11319801124911DB29F700D811D1124911D089584
S1071990F894FFCFF5
S1131994010000000301010704020203010701031B
S11319A40107020203020207030307010101010FF5
S11319B40000000300000000F106290700000F01E5
S11319C4011E011E011E011E013C03011B011A011B
S11319D41B011A01F002021801180118011801FF71
S11319E402031601130111010E011502030C01096E
S11319F40107010401544554524953203433363801
S1091A043232323500000D
S9030000FC
