:100000000C94EC000C9409010C9409010C94090166
:100010000C9409010C94B4010C9409010C9409018D
:100020000C9409010C9409010C9409010C94090128
:100030000C9409010C9409010C9409010C94090118
:100040000C94BE080C9409010C9409010C9409014C
:100050000C94DF070C949D070C9409010C94090182
:100060000C9409010C9409010C9409010C940901E8
:100070000C9409010C9409010C94090150726573E8
:1000800073206120627574746F6E20746F207374B6
:1000900061727420616761696E0047414D45204F70
:1000A0005645520043535345323031302F373230AA
:1000B00031205465747269732050726F6A6563747D
:1000C000206279203C796F7572206E616D652873AE
:1000D0002920686572653E00546574726973004A30
:1000E00001470143013F013B01370133012F012B40
:1000F000012701B901B501B101AD01A901A501A116
:10010000019D019A01960192018E0189018501816B
:10011000017D017801740170016B01670162015D6D
:1001200001580153014E016492927D6C92926D8050
:100130009EA0C17C92924DE4A2A29D182848FF4443
:1001400092926D468A926342FE037C92A27D868AD9
:1001500092A2C3E0100E10E1C6281028C7FC021CB2
:1001600002FDF8040204F9FC0202FD8080FE808199
:100170006492924DFE9098677C828A7C03FE9090F8
:10018000617C82827DFE2010FFFE403040FFFE0237
:100190000203FE1028C7040202FD82FE83FE101037
:1001A000FF7C82925DFE909081FE929283FE82821D
:1001B0007D7C828245FE92926D7E90907F1B5B3F9C
:1001C00032356C001B5B25646D001B5B324A001BE3
:1001D0005B25643B2564480011241FBECFEFD8E0A7
:1001E000DEBFCDBF11E0A0E0B1E0EAE7F9E102C077
:1001F00005900D92AC36B107D9F723E0ACE6B1E03B
:1002000001C01D92A933B207E1F70E94FF050C94CB
:10021000BB0C0C940000CF93DF93EC010E94720999
:1002200025E030E040E050E00E94E3088BE0680207
:10023000F0011124E25DFE4F4381548120818181D0
:10024000928168835A8349832B831C821D821E827C
:100250009F838887CE01DF91CF910895FC0120858F
:1002600047813581822F90E0830F911D09974CF5CE
:100270003481842F90E0830F911D419724F586816E
:1002800090E0019683709078992324F401978C6F05
:100290009F6F0196DC01BB279081AA0FBB1F3BE03B
:1002A0009302A00DB11D1124A25DBE4F13966D9156
:1002B0007C9114977283618386832783408781E0D2
:1002C000089580E0089580E00895FC0195812781DC
:1002D00030E0290F311D2830310524F49F5F9583CC
:1002E00081E0089580E0089580E00895E8E6F0E078
:1002F000808182608083D99AECE6F0E080818F6013
:10030000808310926C01089510926C010895809181
:100310006C0118163CF580916D016FB7F8949091BF
:100320006C019230B4F021E030E091E0F901E35942
:10033000FE4F4081F901E459FE4F40839F5F292F12
:1003400030E040916C01042E000C550B241735074A
:100350006CF390916C01915090936C0166231CF4A6
:10036000789408958FEF08951F920F920FB60F9211
:1003700011242F933F934F935F936F937F938F93AA
:100380009F93EF93FF9343B14F7080916C0188303E
:1003900064F580E090E0642F70E09B01082E02C0BD
:1003A000359527950A94E2F720FF1BC0209175012F
:1003B00030E0082E02C0359527950A94E2F720FD1B
:1003C00010C0E0916C0121E02E0F20936C010E2EE5
:1003D000000CFF0BE359FE4F808320916C01283005
:1003E00024F4019684309105C1F640937501FF9184
:1003F000EF919F918F917F916F915F914F913F917D
:100400002F910F900FBE0F901F901895EF92FF92B3
:100410000F931F93CF93DF93CDB7DEB729970FB616
:10042000F894DEBF0FBECDBF09831A832B833C83B4
:100430004D835E836F8378878987EA80FB80982F5E
:10044000882371F1052FF701208130E002C0220FCF
:10045000331F5A95E2F7E42FF0E0EA5FFD4F808109
:10046000822301F5F7013196A42FB0E0A95FBD4FBB
:100470009150692F70E06F5F7F4F6E0D7F1D0CC034
:1004800091914D91292F30E0002E02C0220F331F91
:100490000A94E2F7242341F4E617F70789F705C029
:1004A00080E003C081E001C081E029960FB6F89496
:1004B000DEBF0FBECDBFDF91CF911F910F91FF9097
:1004C000EF900895FF920F931F93CF93DF93D091F6
:1004D0001E02DD2399F1E6E1F2E014814781858176
:1004E00057E0581BA181B281C0E0F12C00E06C2FD5
:1004F000610F4423F9F02F2D302F70E0660F771F26
:10050000660F771F660F771F8C9190E0022E02C056
:10051000959587950A94E2F780FF08C0852F821B86
:10052000FB01E80FF11DEA57FE4F10822F5F3F4F8E
:10053000241750F3CF5F1196CD17C8F2DF91CF91FA
:100540001F910F91FF900895EF92FF920F931F93C9
:10055000CF93DF9310911E021123A1F1E6E1F2E0A7
:1005600004814781858157E0581BC381A181B281F5
:10057000D0E0E12CF12C6D2F600F4423F9F02E2DEB
:100580003F2D70E0660F771F660F771F660F771F8E
:100590008C9190E0022E02C0959587950A94E2F71F
:1005A00080FF08C0852F821BFB01E80FF11DEA5771
:1005B000FE4FC0832F5F3F4F241750F3DF5F11962C
:1005C000D117C8F2DF91CF911F910F91FF90EF905B
:1005D0000895CF93DF93C82FDFEFD60FD80FD8172A
:1005E00080F06C2F70E0660F771F660F771F660F25
:1005F000771F6A577E4F8C2F0E948004CF5FDC17D5
:1006000080F7DF91CF9108950F931F93CF93DF93DE
:10061000CDB7DEB729970FB6F894DEBF0FBECDBFBA
:10062000CE0101960E940B0189E0FE013196A6E100
:10063000B2E001900D928A95E1F7009116021091B7
:100640001702209118023091190240911A0250911C
:100650001B0260911C0270911D0280911E020E947B
:10066000060281110AC00E94A402E6E1F2E0608560
:1006700084810E94E90281E001C080E029960FB6E2
:10068000F894DEBF0FBECDBFDF91CF911F910F91C8
:1006900008950E94A204A6E0B2E026E831E046E018
:1006A00052E090E01D92F901892F11928F5F8830FE
:1006B000E1F7285F3F4F24173507A1F70E94040395
:1006C00008950F931F93CF93DF93CDB7DEB729978C
:1006D0000FB6F894DEBF0FBECDBF99E0E6E1F2E0C1
:1006E000DE01119601900D929A95E1F7811107C0F4
:1006F000CE0101960E946501811107C028C0CE017C
:1007000001960E947401882321F109811A812B81AD
:100710003C814D815E816F81788589850E940602CA
:10072000811119C00E94620289E0FE013196A6E1A2
:10073000B2E001900D928A95E1F70E94A402E6E1F1
:10074000F2E0608584810E94E90281E005C080E0DA
:1007500003C080E001C080E029960FB6F894DEBFA8
:100760000FBECDBFDF91CF911F910F910895FF92E2
:100770000F931F93CF93DF93CDB7DEB729970FB6B3
:10078000F894DEBF0FBECDBFE6E1F2E04481808584
:1007900090E0840F911D40977CF589E0DE01119671
:1007A00001900D928A95E1F7FF24F394F40E0981EC
:1007B0001A812B813C814F2D5E816F8178858985DF
:1007C0000E94060281111AC00E946202FD8289E025
:1007D000FE013196A6E1B2E001900D928A95E1F713
:1007E0000E94A402E6E1F2E060856F5F848181509F
:1007F0000E94E90281E003C080E001C080E0299608
:100800000FB6F894DEBF0FBECDBFDF91CF911F9121
:100810000F91FF9008950F931F93CF93DF93CDB760
:10082000DEB729970FB6F894DEBF0FBECDBF89E0C3
:10083000E6E1F2E0DE01119601900D928A95E1F772
:10084000CE0101960E942E01882339F109811A8177
:100850002B813C814D815E816F81788589850E94E5
:10086000060281111CC0898510911E02181708F418
:10087000182F0E94620289E0FE013196A6E1B2E0E3
:1008800001900D928A95E1F70E94A402612F809158
:100890001A020E94E90281E003C080E001C080E00A
:1008A00029960FB6F894DEBF0FBECDBFDF91CF9172
:1008B0001F910F91089530911E023323D1F0E6E18C
:1008C000F2E064814581A181B28120E0E22FE60F50
:1008D000F0E08D91EA5FFD4F90E0042E02C0880F9A
:1008E000991F0A94E2F79081892B80832F5F231749
:1008F00068F30E940403089580E80E943208089576
:100900000F931F93CF93DF93C82F8B0183E00E9437
:100910005A088C2F8F700E945A08E801085F1F4FF9
:1009200089910E945A08C017D107D1F7DF91CF9162
:100930001F910F91089584E00E945A0882E00E945E
:100940005A0808958FE00E945A0808950E947C0476
:100950000E94760140E060E07BE480E090E00E944D
:100960004A070E94980878940895FF920F931F9366
:10097000CF93DF9380E00E9482080E9479080E9452
:100980008F0863E083E00E94600888ED90E09F9309
:100990008F930E94BE0965E083E00E94600880E2B8
:1009A0000E94820884EA90E09F938F930E94BE0980
:1009B00085E20E9482080E94A2040F900F900F907F
:1009C0000F90CFE00F2EFFE0FF2EF02D0FEF10EF76
:1009D000D5E16C2F85E691E00E9413060DC02FE74C
:1009E0008CE293E0215080409040E1F700C000008D
:1009F0000E9487018F3FA9F50E9422068111EFCF47
:100A00000E947209DC01CB0183709927AA27B07874
:100A1000BB2354F40197A109B1098C6F9F6FAF6F8D
:100A2000BF6F0196A11DB11D81309105A105B105D2
:100A300091F02CF4892B8A2B8B2B59F0CACF823062
:100A40009105A105B10549F00397A105B10539F05C
:100A5000C0CFCD2FBECFCF2DBCCFC02FBACFC12F8F
:100A6000B8CFDF91CF911F910F91FF9008950E9411
:100A700049030E9479080E940A060E9484010E948C
:100A8000980708954F925F926F927F928F929F92F4
:100A9000AF92CF92DF92EF92FF921F93CF93DF93AB
:100AA0000E94B0086B017C0110E0DFEF0F2EF3E332
:100AB0008F2EF3E09F2EF02D6894AA24A1F80E94B7
:100AC0008701C82F8F3F09F061C00E9491078823DA
:100AD000D1F1F401808191810E948009111105C03A
:100AE0008B3109F44DC08D2F0AC0113029F48B359C
:100AF00009F448C08D2F03C0123009F045C084347A
:100B000009F047C010E080E00E9461031CC010E0C3
:100B100081E00E94610317C0C23011F0813419F4E2
:100B20000E940B0410C0C13011F0823461F40E94A5
:100B3000B703811104C00E945B048823A1F10E94C5
:100B4000B0086B017C010E94B00826013701F8E56E
:100B50004F0EF2E05F1E611C711C64157505860561
:100B6000970508F4ACCF0E94B703811104C00E941E
:100B70005B048823C1F00E94B0086B017C019FCF09
:100B800011E0E1CF1A2DDFCF10E0DDCF833031F45B
:100B9000BACF833409F4BBCF10E0BECF882309F469
:100BA000B7CF8D2FB9CFDF91CF911F91FF90EF90ED
:100BB000DF90CF90AF909F908F907F906F905F90DD
:100BC0004F9008956EE08AE00E9460088AE990E004
:100BD0009F938F930E94BE096FE08AE00E94600895
:100BE0008CE790E09F938F930E94BE090F900F9027
:100BF0000F900F900E9487018F3FE1F308950E94AC
:100C0000A6040E94B5040E9437050E9442050E9476
:100C1000E205F9CF109276011092770110927801D7
:100C200010927901089560931F0190937E01809343
:100C30007D011092800110927F0110927C01109230
:100C40007B0108950F931F93CF93DF93CDB7DEB74A
:100C500028970FB6F894DEBF0FBECDBFE0917F019D
:100C6000F0918001309781F0149110FF06C010922E
:100C7000800110927F0100E06BC03196F0938001FB
:100C8000E0937F0100E064C0E0917B01F0917C0182
:100C9000309709F449C0CF01019690937C0180936D
:100CA0007B01E081E1110AC010927C0110927B016E
:100CB00080E180937A0100E010E04AC08FE98E0F56
:100CC0008A3170F4F0E0EE0FFF1FEF5CFF4F85916B
:100CD00094919093800180937F0100E010E038C0F0
:100CE0008FEB8E0F8A3170F4F0E0EE0FFF1FEF589C
:100CF000FF4F859194919093800180937F0100E054
:100D000010E026C080ED8E0F8A3000F5F0E0EE0F87
:100D1000FF1FE158FF4F859194919093800180933C
:100D20007F0100E010E014C080917D0190917E0170
:100D300001E0009709F000E090937C0180937B0133
:100D400010927E0110927D0110E002C000E010E0E0
:100D50000E949B0420911F01FE013896CE0101964E
:100D6000112314F4208301C01082110F3197E8176A
:100D7000F907B1F71982BE016F5F7F4F8FE00E94C4
:100D8000800480917A01882389F0815080937A01D0
:100D9000002311F0882311F090E003C091E001C01E
:100DA00091E081E0992329F080E003C00111F8CFA0
:100DB000F3CF28960FB6F894DEBF0FBECDBFDF91FC
:100DC000CF911F910F910895CF93C82F8A3019F4B6
:100DD0008DE00E94E4062FB7207802C0222329F17B
:100DE000909120029F3FD1F3F894E0911F0281E09F
:100DF0008E0F80931F02F0E0EF5DFD4FC083809166
:100E000020028F5F8093200280911F028F3F11F498
:100E100010921F02E1ECF0E0808180628083222347
:100E200039F0789480E090E005C081E090E002C065
:100E300080E090E0CF910895809132038823E1F320
:100E40002FB72078F894809120033091320390E0FE
:100E5000831B91095AF4E091200380913203F0E062
:100E6000E81BF109EF5CFC4F80810AC0E091200390
:100E700080913203F0E0E81BF109EF5DFC4F8081C7
:100E800090913203915090933203222309F0789489
:100E900090E0089510921F021092200210922003F9
:100EA000109232031092310340938101DC01CB0197
:100EB000880F991FAA1FBB1F880F991FAA1FBB1F4E
:100EC0009C01AD01220F331F441F551F60E072E1EA
:100ED0008AE790E00E94E308BA01A9014F5F5F4FE3
:100EE0006F4F7F4FDB01CA011AF40196A11DB11D9E
:100EF000B595A7959795879501979093C500809391
:100F0000C400E1ECF0E088E1808380818068808328
:100F1000E3E3F3E080E291E0938382839183808333
:100F200008959091320381E0911101C080E008950D
:100F3000109220031092320308951F920F920FB661
:100F40000F9211242F938F939F93EF93FF93809190
:100F50002002882329F180911F022091200290E035
:100F6000821B91095AF4E0911F0280912002F0E067
:100F7000E81BF109E05EFC4F90810AC0E0911F027E
:100F800080912002F0E0E81BF109EF5DFD4F9081B8
:100F9000809120028150809320029093C60005C06A
:100FA000E1ECF0E080818F7D8083FF91EF919F9154
:100FB0008F912F910F900FBE0F901F9018951F9239
:100FC0000F920FB60F9211242F933F934F935F937D
:100FD0006F937F938F939F93AF93BF93CF93EF9331
:100FE000FF93C091C60080918101882349F08091D0
:100FF00020028F3F29F060E070E08C2F0E94E40611
:1010000080913203803120F081E08093310318C059
:10101000CD3009F4CAE0E091200381E08E0F809387
:101020002003F0E0EF5DFC4FC083809132038F5FBF
:101030008093320380912003803111F410922003B9
:10104000FF91EF91CF91BF91AF919F918F917F9140
:101050006F915F914F913F912F910F900FBE0F9025
:101060001F90189594B1906B94B92C9A90E59CBD03
:10107000883021F0803211F0823019F491E09DBD6A
:1010800001C01DBC803269F028F4883071F08031D5
:1010900061F00EC0803429F0803851F48CB5816045
:1010A0008CBD8CB582608CBD03C08CB581608CBD5D
:1010B0002C9808958EBD0DB407FEFDCF8EB5089512
:1010C000282F082E000C330B3F938F93862F062E6C
:1010D000000C990B9F936F938FEC91E09F938F93EC
:1010E0000E94BE090F900F900F900F900F900F90DD
:1010F00008958AEC91E09F938F930E94BE090F9010
:101100000F9008951F928F9384EC91E09F938F939B
:101110000E94BE090F900F900F900F9008958DEBD5
:1011200091E09F938F930E94BE090F900F900895B6
:101130001092820110928301109284011092850115
:1011400016BC8CE787BD82E084BD83E085BDEEE6FA
:10115000F0E080818260808385B3827085BB0895D2
:101160002FB7F8946091820170918301809184017E
:101170009091850122230CF4789408951F920F9288
:101180000FB60F9211248F939F93AF93BF938091CB
:10119000820190918301A0918401B0918501019613
:1011A000A11DB11D8093820190938301A0938401BE
:1011B000B0938501BF91AF919F918F910F900FBE1A
:1011C0000F901F901895052E97FB1EF400940E9417
:1011D000FA0857FD07D00E94020907FC03D04EF41D
:1011E0000C94FA0850954095309521953F4F4F4FFC
:1011F0005F4F089590958095709561957F4F8F4FC3
:101200009F4F0895A1E21A2EAA1BBB1BFD010DC022
:10121000AA1FBB1FEE1FFF1FA217B307E407F507A6
:1012200020F0A21BB30BE40BF50B661F771F881F82
:10123000991F1A9469F760957095809590959B0118
:10124000AC01BD01CF0108958F929F92AF92BF92E2
:10125000CF92DF92EF92FF92CF93DF93EC01688100
:1012600079818A819B81611571058105910521F440
:1012700064E279ED8BE597E02DE133EF41E050E05A
:101280000E94E30849015A019B01AC01A7EAB1E4BD
:101290000E94620C6B017C01ACEEB4EFA5019401DD
:1012A0000E94700CDC01CB018C0D9D1DAE1DBF1D7D
:1012B000B7FF03C00197A109B04888839983AA8327
:1012C000BB83BC01CD019F77DF91CF91FF90EF9061
:1012D000DF90CF90BF90AF909F908F9008950E9425
:1012E0002409089580E091E00E9424090895609304
:1012F000000170930101809302019093030108950E
:10130000CF93DF93EC012B8120FF33C026FF0AC06F
:101310002F7B2B838E819F8101969F838E838A8171
:1013200090E029C022FF0FC0E881F9818081082E5A
:10133000000C990B009719F420622B831AC0319688
:10134000F983E8830EC0EA85FB85099597FF09C0FC
:101350002B81019611F080E201C080E1822B8B830A
:1013600008C02E813F812F5F3F4F3F832E839927F7
:1013700002C08FEF9FEFDF91CF910895A0E0B0E022
:10138000E4ECF9E00C94830CAE01495F5F4FDA01A5
:101390006D917D91AD0103E313E0F80182819381AA
:1013A000DC0113962C911397286013962C930E94BE
:1013B000E409D8011296ED91FC9113972381277FC0
:1013C0002383E4E00C949F0CACE0B0E0EAEEF9E09B
:1013D0000C94750C7C016B018A01FC01178216824A
:1013E000838181FFBDC1CE0101964C01F70193813C
:1013F000F60193FD859193FF81916F01882309F494
:10140000ABC1853239F493FD859193FF81916F01D2
:10141000853229F4B70190E00E94CC0BE7CF512C24
:10142000312C20E02032A0F48B3269F030F480328D
:1014300059F0833269F420612CC08D3239F0803349
:1014400039F4216026C02260246023C0286021C0B6
:1014500027FD27C030ED380F3A3078F426FF06C05C
:10146000FAE05F9E300D1124532E13C08AE0389E9F
:10147000300D1124332E20620CC08E3221F426FD53
:101480006BC1206406C08C3611F4206802C0883617
:1014900041F4F60193FD859193FF81916F018111D4
:1014A000C1CF982F9F7D9554933028F40C5F1F4F28
:1014B000FFE3F9830DC0833631F0833771F0833554
:1014C00009F05BC022C0F801808189830E5F1F4F45
:1014D00044244394512C540115C03801F2E06F0E9E
:1014E000711CF801A080B18026FF03C0652D70E05B
:1014F00002C06FEF7FEFC5012C870E94C10B2C014A
:1015000083012C852F77222E17C03801F2E06F0E51
:10151000711CF801A080B18026FF03C0652D70E02A
:1015200002C06FEF7FEFC5012C870E94B60B2C0124
:101530002C852068222E830123FC1BC0832D90E084
:1015400048165906B0F4B70180E290E00E94CC0B37
:101550003A94F4CFF50127FC859127FE81915F0134
:10156000B70190E00E94CC0B31103A94F1E04F1A91
:1015700051084114510471F7E5C0843611F08936E1
:1015800039F5F80127FF07C060817181828193815D
:101590000C5F1F4F08C060817181072E000C880B03
:1015A000990B0E5F1F4F2F76722E97FF09C09095F3
:1015B0008095709561957F4F8F4F9F4F2068722E59
:1015C0002AE030E0A4010E94040CA82EA81844C010
:1015D000853729F42F7EB22E2AE030E025C0F22F85
:1015E000F97FBF2E8F36C1F018F4883579F0B4C07A
:1015F000803719F0883721F0AFC02F2F2061B22E2D
:10160000B4FE0DC08B2D8460B82E09C024FF0AC023
:101610009F2F9660B92E06C028E030E005C020E17B
:1016200030E002C020E132E0F801B7FE07C060817F
:101630007181828193810C5F1F4F06C0608171812F
:1016400080E090E00E5F1F4FA4010E94040CA82EC2
:10165000A818FB2DFF777F2E76FE0BC0372D3E7F1F
:10166000A51450F474FE0AC072FC08C0372D3E7EEB
:1016700005C0BA2C372D03C0BA2C01C0B52C34FFDD
:101680000DC0FE01EA0DF11D8081803311F4397E19
:1016900009C032FF06C0B394B39404C0832F867888
:1016A00009F0B39433FD13C030FF06C05A2CB314B5
:1016B00018F4530C5B18B32CB31468F4B70180E230
:1016C00090E03C870E94CC0BB3943C85F5CFB314DB
:1016D00010F43B1801C0312C34FF12C0B70180E375
:1016E00090E03C870E94CC0B3C8532FF17C031FD57
:1016F00003C088E790E002C088E590E0B7010CC025
:10170000832F867859F031FF02C08BE201C080E25E
:1017100037FD8DE2B70190E00E94CC0BA51438F4A0
:10172000B70180E390E00E94CC0B5A94F7CFAA94C3
:10173000F401EA0DF11D8081B70190E00E94CC0B0D
:10174000A110F5CF332009F451CEB70180E290E02B
:101750000E94CC0B3A94F6CFF7018681978102C0A4
:101760008FEF9FEF2C96E2E10C94910CFC01059019
:10177000615070400110D8F7809590958E0F9F1F93
:101780000895FC016150704001900110D8F78095D8
:1017900090958E0F9F1F08950F931F93CF93DF9304
:1017A000FB01238121FD03C08FEF9FEF28C022FFA3
:1017B00016C046815781248135814217530744F46E
:1017C000A081B1819D012F5F3F4F318320838C9396
:1017D000268137812F5F3F4F3783268310C0EB016F
:1017E000092F182F0084F185E02D0995892BE1F64A
:1017F0008E819F8101969F838E83812F902FDF9111
:10180000CF911F910F910895FA01AA27283051F125
:10181000203181F1E8946F936E7F6E5F7F4F8F4F21
:101820009F4FAF4FB1E03ED0B4E03CD0670F781F80
:10183000891F9A1FA11D680F791F8A1F911DA11D65
:101840006A0F711D811D911DA11D20D009F468949E
:101850003F912AE0269F11243019305D3193DEF646
:10186000CF010895462F4770405D4193B3E00FD0FC
:10187000C9F7F6CF462F4F70405D4A3318F0495DE7
:1018800031FD4052419302D0A9F7EACFB4E0A695CA
:101890009795879577956795BA95C9F700976105EC
:1018A000710508959B01AC010A2E06945795479542
:1018B00037952795BA95C9F7620F731F841F951F37
:1018C000A01D08950E94AC0CA59F900DB49F900D93
:1018D000A49F800D911D11240895B7FF0C94620CF4
:1018E0000E94620C821B930B08952F923F924F929D
:1018F0005F926F927F928F929F92AF92BF92CF92A0
:10190000DF92EF92FF920F931F93CF93DF93CDB7A8
:10191000DEB7CA1BDB0B0FB6F894DEBF0FBECDBF20
:1019200009942A88398848885F846E847D848C84F1
:101930009B84AA84B984C884DF80EE80FD800C81FA
:101940001B81AA81B981CE0FD11D0FB6F894DEBFDD
:101950000FBECDBFED010895A29FB001B39FC0019E
:10196000A39F700D811D1124911DB29F700D811DCB
:0A1970001124911D0895F894FFCF93
:10197A000100000003010107040202030107010339
:10198A000107020203020207030307010101010F13
:10199A000000000300000000E4061C0700000F011D
:1019AA00011E011E011E011E013C03011B011A0139
:1019BA001B011A01F002021801180118011801FF8F
:1019CA0002031601130111010E011502030C01098C
:0C19DA0001070104015445545249530018
:00000001FF
